:020000040000FA
:1000000008700010F9000000010100000301000069
:1000100005010000070100000901000000000000C8
:100020000000000000000000000000000B010000C4
:100030000D010000000000002B060000E96A00002E
:100040000F010000214D00000F0100000F01000012
:100050000F010000BD4E0000F15000007D53000074
:100060007D5500000F0100000F0100000F0100008E
:100070000F0100000F0100000F0100000F01000040
:100080000F0100007D3E00000F0100000F01000085
:100090000F0100000F0100000F0100000F01000020
:1000A0000F010000DD1300000F0100000F01000030
:1000B0000F0100000F0100000F0100000F01000000
:1000C0000F0100000F0100000F0100007D5700002C
:1000D0000F0100000F0100000F0100000F010000E0
:1000E0000F010000DFF80CD000F02AFA00480047AA
:1000F00081690000087000100548804705480047E6
:10010000FEE7FEE7FEE7FEE7FEE7FEE7FEE7FEE7C7
:10011000214C0000E50000000649074A08685043EA
:1001200043F23902104408604008704701490860F2
:1001300070470000E40100106D4EC64140EA010323
:100140009B0703D009E008C9121F08C0042AFAD28D
:1001500003E011F8013B00F8013B521EF9D2704751
:10016000D2B201E000F8012B491EFBD270470022F9
:10017000F6E710B513460A4604461946FFF7F0FFA6
:10018000204610BD2DE9FE4F804681EA0300C00FD6
:100190000C46009021F0004123F00045B8EB02002E
:1001A000A94105D24046214690461C460B460246D0
:1001B00023F00040104347D0270DC7F30A00C3F3D4
:1001C0000A510290401A019040286BDAC3F31300E1
:1001D00040F4801B0098924620B10023D2EB030A22
:1001E00063EB0B0B01985946C0F14002504600F0FA
:1001F00018F906460D4650465946019A00F030F966
:1002000010EB08006141002487EA115284EAE77389
:100210001A4340D0009A62B3019A012A4FEA07526A
:1002200015DC001B61EB02014FF0004202EA0752AD
:10023000CDE90042001C41F5801132462B4600F00A
:1002400030F903B0BDE8F08F40462146F9E7001BC6
:1002500061EB0201001C41F5801300185B4120187E
:10026000A2F5001747EB030140EAD570B6196D41BE
:1002700011E06D084FEA360645EAC0754FEA0752AD
:10028000001B61EB0201001C41F5801149084FEA97
:1002900030000019514132462B4603B0BDE8F04F03
:1002A00000F0F0B80098012240000023D0EB0202D9
:1002B00063EBE073009821464FEAE074B8EB00006E
:1002C00061EB0401E9E783F000435BE781F0004163
:1002D00058E70EB5C10F80EAE0700844CA07002154
:1002E00040F233438DE80E000A460B4600F0D9F881
:1002F00003B000BD7047704770477047FFFFFFFFB6
:100300002DE9FE4F81EA030404F0004421F000418E
:1003100000944FF0000B23F0004350EA01045ED03C
:1003200052EA03045BD0C3F30A54C1F30A552C44C8
:10033000A4F2F3340194A0FB0254C1F3130141F47D
:100340008011C3F3130343F4801301FB024400FB49
:10035000034E840A970A44EA815447EA8357A4FB70
:10036000076802958D0A05FB07854FEA932C04FB6D
:100370000C542705029D4FEA065847EA1637B5EB9D
:1003800008056EEB070C870E920E47EA811742EACA
:100390008312A7FB0201B6EB0B0164EB00042B0DEB
:1003A00043EA0C335E1844EB1C50DA465146E7FB37
:1003B0000201C5F313044FEA0B3343EA14534FEA27
:1003C0000432019C43EA0603A4F10C040294009C4D
:1003D000CDE900B400F065F803B0BDE8F08F00206F
:1003E0000146F9E770B5C1F30A5201F00045002457
:1003F000C1F3130140F2FF3341F480119A4201DA54
:10040000002070BD40F233439A42A2F2334203DC33
:10041000524200F015F800E090402C43F1D04042E9
:1004200070BD202A04DB203A00FA02F10020704758
:100430009140C2F1200320FA03F319439040704722
:10044000202A04DB203A21FA02F00021704721FA29
:1004500002F3D040C2F12002914008431946704790
:10046000202A06DBCB17203A41FA02F043EAE07378
:1004700006E041FA02F3D040C2F120029140084365
:100480001946704710B5141E73F1000408DA401CB9
:1004900041F1000192185B411A4301D120F00100A3
:1004A00010BD2DE9F04D92469B4611B1B1FA81F293
:1004B00002E0B0FA80F220329046FFF7B2FF044625
:1004C0000F4640EA0A0041EA0B0153465A460843E8
:1004D00013D0114653EA010019D0C8F1400250462A
:1004E000FFF7AEFF05460E46504659464246FFF717
:1004F00098FF084305D0012004E020463946BDE8B6
:10050000F08D0020054346EAE0762C4337430A98F5
:100510006305E40AA0EB08000022FD0A44EA475400
:100520000A3002D500200146E9E7010510196941AA
:10053000DDE9084500196941BDE8F04DA2E700007A
:10054000064C074D06E0E06840F0010394E8070020
:1005500098471034AC42F6D3FFF7C8FDF06C0000AA
:10056000106D000070B58C1810F8015B15F00703D2
:1005700001D110F8013B2A1106D110F8012B03E03C
:1005800010F8016B01F8016B5B1EF9D12B0705D444
:100590000023521E0DD401F8013BFAE710F8013B8D
:1005A000CB1A921C03E013F8015B01F8015B521EA9
:1005B000F9D5A142D8D3002070BD000072B606B4B0
:1005C0002E490A7802F101020A7006BC704706B48F
:1005D0002A490A78A2F101020A704FF00001002AAC
:1005E00008BF81F3108806BC7047254C254D256057
:1005F0004FF0000484F30988234C4FF00105257067
:10060000224C4FF08055256062B6FEE730B41F4C97
:100610004FF08055256030BC704730B41B4C4FF014
:100620008055256030BC704700BFEFF3108372B671
:10063000EFF3098030B1A0F1200080E8F00F144CF6
:100640002468206000B5134880475DF804EB124C25
:10065000124D2E7826700E4C114E3668266030688A
:1006600090E8F00F00F1200080F309884EF0040EAE
:1006700083F31088704700BF72B6704710000010F7
:1006800020ED00E00000FFFF3E00001004ED00E060
:1006900044000010812F00003300001034000010CF
:1006A0004C0000102DE9F04304460B460027B846E5
:1006B000B94600250026AC46082B02DD2846BDE8D9
:1006C000F08300212CE0605C302802DB605C39287C
:1006D00002DD605C2E281ED1605C2E2815D0B9F199
:1006E000000F05D04FF0000908F1010000F0FF08ED
:1006F000B8F1010F02DD4FF0FF30E0E705EB8500B8
:100700004500605C3038054408E0781CC7B28C4670
:100710004FF0010902E04FF0FF30D0E7481CC1B2B2
:100720009942D0DB012F02DD4FF0FF30C7E7BCF16B
:10073000000F0DD1002A2FDD0126002104E006EB79
:1007400086004600481CC1B29142F8DB754323E0A5
:100750000CF10100181AC3B29A420DDDD01AC2B2D0
:100760000126002104E006EB86004600481CC1B2C9
:100770009142F8DB75430FE09A420DDA981AC3B242
:100780000126002104E006EB86004600481CC1B2A9
:100790009942F8DBB5FBF6F5284690E730B50346FD
:1007A00000201BE013F81040612C0CDB022404FB3A
:1007B00000346478A4F1570513F81040E41F05EBEA
:1007C00004140C5409E0022404FB00346478303C27
:1007D00013F8105004EB05140C54401C02EBD275B6
:1007E000B0EB650FDED330BD10B501460A46C81721
:1007F00001EB10700011A1EB00100B46CC1701EBC0
:100800001474241104EB840400EB4400C0B210BD46
:1008100000BF00240026002500207A490860F0E08F
:10082000012300221146104602F0E6FB00F09EFF75
:100830007448006805287DD2DFE800F003232425F2
:10084000B2007148006A40F080506F490862084663
:10085000C06B40F08050C8630846006A40F000500A
:1008600008620846C06B40F00050C8630846006844
:1008700040F0020008600846C06940F00200C8610C
:10088000BEE0BDE0BCE0701C86B2681C85B2601C96
:1008900084B2FA2E03DB00F0E9F900260AE0FA2D13
:1008A00003DB00F065FC002504E0322C02DB00F0E5
:1008B000B7F800245348408AB0F5C87F4CDB534852
:1008C00000885049498A01EB8101C0EB4100C828EA
:1008D00015DC4D48006A40F080504B4908620846DC
:1008E000C06B40F08050C8630846006A40F000507A
:1008F00008620846806B40F0005088632CE0434853
:1009000000884049498A01EB8101A0EB410064283D
:1009100017DC3D48006A40F080503B4908620846B9
:10092000C06B40F08050C8630846006A40F0005039
:10093000086200E063E00846806B40F00050886386
:100940000AE03148006A40F000502F49086208462A
:10095000C06B40F00050C8632D4800683C21B0FBDC
:10096000F1F02C490989884209D32A488079012865
:1009700005D10420234908600020264988712148B8
:10098000C07A64280BDB2348807A012807D1002035
:100990001C49C8720420086000201E4988722FE09C
:1009A0001D480068401C1C4908601C480068401C29
:1009B0001A490860184800680A21B0FBF1F201FBEF
:1009C000120078B900F0FCFB0F48006A40F00050BC
:1009D0000D4908620846C06B40F00050C863002013
:1009E0000D4908600D4800684FF4FA61B0FBF1F260
:1009F00001FB120010B900200249086000BF00BFCF
:100A000000BF0DE7783C001000800920780000103E
:100A1000C8010010683C0010800000108400001025
:100A200010B53048304908603048408A00EB8000FB
:100A300040F6B831B1EB400F08DC2C48408A00EB9F
:100A4000800041F64C51B1EB400F05DAB82028493F
:100A500008700B20487014E02449498A01EB810199
:100A60004800C11700EB11610912A0EB0121204AD7
:100A700011701E48408A00EB8000C0F3D710114669
:100A800048701A49898A01EB81014FF47A62A2EB1E
:100A90004100C11700EB11610912A0EB0121144ABA
:100AA00091701248808A00EB80004FF47A61A1EBCC
:100AB0004000000A1146C8700C48817A0020884026
:100AC000C00020B10948807A1146087102E0022076
:100AD00007490871064B044801210268052005F00A
:100AE0006DF910BDF4561018B0010010783C0010DC
:100AF000B401001010B50E480E49086010200E49D0
:100B000008700D204870002088700220C870FF20F7
:100B1000087100204871062088710020C8710B46BA
:100B2000044801210268082005F048F910BD0000C2
:100B3000F456EC1CB0010010B401001010B52048B0
:100B4000204908600120204908702049488BC117BE
:100B500000EB11610912A0EB01211B4A51701B48E7
:100B6000408B0012114688701849C98901EB810138
:100B70004800C11700EB11610912A0EB0121D170EF
:100B80001248C08900EB8000C0F3D71011460871ED
:100B900023204871022088710C49898901EB810169
:100BA0004800C11700EB11610912A0EB0121D171BE
:100BB0001346044801210268082005F0FFF810BD23
:100BC000F456EB1CB0010010B4010010783C00108A
:100BD00010B52248224908600220224908702248A4
:100BE000808900EB8000C0F3D71048701E48807FDA
:100BF000323088701C49C97A01EB81014800C11765
:100C000000EB11610912A0EB0121164AD1701648C0
:100C1000C07A00EB800040F3D710114608711249EA
:100C2000098A01EB81014800C11700EB116109122B
:100C3000A0EB012151710C48008A00EB8000C0F349
:100C4000D71011468871FF20C8710B460448012156
:100C50000268082005F0B2F810BD0000F456EB1C45
:100C6000B0010010B4010010783C001010B50E481F
:100C70000E49086010200E490870092048700020B5
:100C800088700220C870FF20087100204871112070
:100C900088710020C8710B460448012102680820B1
:100CA00005F08CF810BD0000F456EC1CB0010010EB
:100CB000B401001010B524482449086001202449DB
:100CC000087024490888C11700EB11610912A0EBD4
:100CD00001211F4A51701F480088000A1146887080
:100CE0001C494988642291FBF2F1C1F57A60C11771
:100CF00000EB11610912A0EB0121154AD1701548D2
:100D00004088642190FBF1F0C0F57A60000A11463A
:100D100008711149C88AC11700EB11610912A0EBD3
:100D2000012151710C48C08AC0F30320114688711B
:100D30000948C07AC8710B4604480121026808209E
:100D400005F03CF810BD0000F456EB1CB00100109B
:100D5000B401001078000010783C001010B5114864
:100D60001149086002201149087011490889C1170A
:100D700000EB11610912A0EB01210C4A51700C48E3
:100D80000089000A11468870FF20C87008714871F8
:100D90008871C8710B46044801210268082005F0DB
:100DA0000DF810BDF456EB1CB0010010B40100109A
:100DB000683C001010B5094809490860F02009494D
:100DC000087048708870FC20C8700B4604480121E8
:100DD0000268042004F0F2FF10BD0000F4561E0863
:100DE000B0010010B401001010B50D480D490860A5
:100DF0000D48007B00EB80004006000E0B49087098
:100E00000948808900EB8000C0F3D71048700B467A
:100E1000044801210268022004F0D0FF10BD000048
:100E2000F4562718B0010010783C0010B4010010EF
:100E300010B50E480E49086010200E490870312088
:100E40004870002088700720C870FF2008710020BB
:100E50004871022088710020C8710B4604480121A6
:100E60000268082004F0AAFF10BD0000F456EC1C34
:100E7000B0010010B401001010B51D481D490860F4
:100E800001201D49087048701C48007A801D00F040
:100E9000070088700020C8701848407A0871174908
:100EA000898801EB81014800C11700EB116109122B
:100EB000A0EB0121104A51711048808800EB80009E
:100EC000C0F3D710114688710C49C98801EB810124
:100ED0004800C11700EB11610912A0EB0121D1718B
:100EE0001346044801210268082004F067FF10BD82
:100EF000F456EB1CB0010010B4010010783C001057
:100F000010B50E480E49086002200E4908700E48C0
:100F1000C08800EB8000C0F3D7104870FF208870B5
:100F2000C870087148718871C8710B460448012166
:100F30000268082004F042FF10BD0000F456EB1CCC
:100F4000B0010010B4010010783C001010B50C483E
:100F50000C49086003200C490870FF204870887015
:100F6000C870087148718871C8710B460548012125
:100F70000268082004F022FF0A2002F003F810BDE6
:100F8000F456EB1CB0010010B401001010B510486D
:100F900010490860042010490870FF2048708870CC
:100FA000C8700E48C07F08710C4890F82000487146
:100FB0000A4890F821008871084890F82200C8710A
:100FC0000B46044801210268082004F0F7FE10BD1A
:100FD000F456EB1CB0010010B4010010783C001076
:100FE00010B51548154908600520154908701548C1
:100FF00090F823004870134890F824008870114836
:1010000090F82500C8700F4890F8260008710D4828
:1010100090F8270048710B4890F82800887109481B
:1010200090F82900C8710B46044801210268082085
:1010300004F0C4FE10BD0000F456EB1CB00100101B
:10104000B4010010783C001010B514481449086031
:10105000062014490870144890F82A004870124875
:1010600090F82B008870104890F82C00C8700E483B
:1010700090F82D0008710C4890F82E0048710A482D
:1010800090F82F008871FF20C8710B460448012199
:101090000268082004F092FE10BD0000F456EB1C1C
:1010A000B0010010B4010010783C001010B50B48DE
:1010B0000B49086007200B490870FF2048708870B2
:1010C000C870087148718871C8710B4604480121C5
:1010D0000268082004F072FE10BD0000F456EB1CFC
:1010E000B0010010B401001010B504460C480D49C1
:1010F00008601CB900200C49087002E0AA200A49C7
:101100000870094B074801210268084604F056FEA2
:10111000FA2300221146104601F06EFF10BD0000B8
:10112000F4560910B0010010B401001010B50D48BC
:101130000D49086041200D49087095204870012034
:1011400088709920C870012008713D2048713E20A8
:1011500088710B46044801210268082004F02EFE25
:1011600010BD0000F4561C18B0010010B4010010AE
:1011700010B50F480F49086008200F4908700F4844
:10118000007F32304870122088700C48407F323027
:10119000C8702020087100204871102088710B460B
:1011A000044801210268082004F008FE10BD000078
:1011B000F4561318B0010010B4010010783C001070
:1011C00010B5094809490860012009490870002044
:1011D00048708870C8700B460448012102680420DA
:1011E00004F0ECFD10BD0000F4561910B001001021
:1011F000B401001010B52248007A112818D12048F7
:10120000C06800F47F00B0F5003F11D101201D49F6
:10121000086068B1FFF730FEFFF772FEFFF796FE39
:10122000FFF7B4FEFFF7DCFEFFF70EFFFFF73EFF10
:101230001348007A11280ED11148C06800F47F00CD
:10124000B0F5C02F07D102200E49086018B1FFF792
:1012500075FCFFF7BDFC0A48007A11280ED108483A
:10126000C06800F47F00B0F5881F07D1032005494E
:10127000086018B1FFF71EFDFFF770FD10BD0000FC
:10128000E86D0010783C001010B50246194800EBDC
:1012900082342368C3F303400870D80F48701548A0
:1012A000001D00EB82342368487818B123F06040B9
:1012B000486002E0C3F30A0048605AB90D4808309C
:1012C00000EB823423688B60001D00EB82342368BE
:1012D000CB600CE0012A0AD10648083000EB8234CA
:1012E00023688B60001D00EB82342368CB600120F3
:1012F00010BD00002040044070B502460B46581E49
:10130000C3B2334800EB823000EB0314216831484C
:1013100001403148007800042F4E767840EAC670CC
:10132000014321602C4845782948001D00EB82309C
:1013300000EB031421683DB101F0E041264840680C
:1013400020F06040014306E06FF30A0122488088E4
:10135000C0F30A00014321601D48083000EB8230D1
:1013600000EB03141C488068206019480C3000EB27
:10137000823000EB03141848C068206014482C38F1
:1013800000EB8234216821F0030141F0030121F0D8
:10139000E00123B1012B05D0022B09D105E041F07A
:1013A000200106E041F0400103E041F0800100E04F
:1013B00000BF00BF21600648283800EB8234216856
:1013C00001F0080008B1012070BD0020FCE700001A
:1013D00030400440FFFFF03FD86D0010F0B500240E
:1013E00040E0224800EB84352F6807F00100002818
:1013F00036D027F001072F6024BB1D480168204626
:10140000FFF742FF1A4801681A48814203D1103899
:101410001749086004E01648006810301449086055
:1014200015480078154908701348407848701248EC
:10143000406848600D48083800EB84352E6846F057
:1014400004062E60012C0BD10D492046FFF71CFF2E
:101450000648083800EB84352E6846F004062E60F6
:10146000601CC4B2022CBCDBF0BD00000C40044088
:10147000A8010010B86D0010E86D0010D86D0010C4
:10148000F86D0010F0B504460D4600BF14B1012CF4
:1014900044D11DE04348006840F400504149C4393C
:1014A000C1F8C4004048406D20F007003E4948653F
:1014B0000846406D40F0040048650846806D20F005
:1014C000070088650846806D40F00400886526E0C6
:1014D0003448006840F480403249C439C1F8C4003F
:1014E0003148D0F81C0120F007002F49C1F81C0139
:1014F0000846D0F81C0140F00100C1F81C01084664
:10150000D0F8200120F00700C1F820010846D0F8EB
:10151000200140F00100C1F8200100E000BF00BF41
:10152000204600F0FDFC214800EB843635600120A8
:101530001F4908609CB91D481438406840F00E00EF
:101540001A49143948600846006940F001000861F2
:101550000846806888600846C06887B210E0154871
:10156000406840F00E00134948600846006940F0AA
:10157000010008610846806888600846C06887B234
:1015800002200B490860204602F0F8FB19200121D7
:1015900081404209920002F1E022C2F8001100BF2E
:1015A000F0BD0000C4C00F4000C002401440044021
:1015B00000C003400080044010B5FFF7FBFB002093
:1015C0000149086010BD0000783C001010B50448C7
:1015D000006810B9FFF708FC00E010BD00BFFCE791
:1015E000783C0010014631B1012907D0022908D00A
:1015F00003290CD108E007480068704706480068D6
:10160000FBE706480068F8E705480068F5E700BF13
:10161000FEE70000000000100400001008000010A9
:101620000C00001010B50948006802280DD10848C8
:10163000006A40F08050064908620846806B40F01E
:1016400080508863AA20FFF74FFD10BD783C001042
:101650000080092010B50D48007A48B90C48006890
:10166000012805D801200A490860FFF7E1FB0CE0DA
:101670000648007AAA2808D105480068012804D144
:10168000FFF738FA02200249086010BDE86D00102B
:10169000783C001010B515480068022824D1144881
:1016A000007A30B9AA20FFF71FFD02200F49086019
:1016B0001AE00F48007AAA2816D103200B490860C7
:1016C00000200C4908600C490860FFF7CFFAFFF7CB
:1016D000A7F90A48006840F0020008490860084677
:1016E000806940F00200886110BD0000783C001065
:1016F000E86D0010C8010010CC0100100080092026
:1017000010B5FFF713FD00200149086010BD00006F
:10171000783C001010B5FFF753FDFFF707FD1148A7
:10172000006A40F080500F4908620846C06B40F0E4
:101730008050C8630846006A40F0005008620846BE
:10174000C06B40F00050C8630846006840F00200DB
:1017500008600846C06940F00200C86104200249E0
:10176000086010BD00800920783C001010B53C488E
:1017700001683C4881420DD13B483949096891E8EC
:101780001C00C96880E81C00C16036482038344914
:10179000086016E0344932480468D4E9010322683D
:1017A000E468C1E90234C1E900202D480068002145
:1017B000016041608160C16029480068103028499B
:1017C000086029484068294A811A90422AD013DCCF
:1017D000274AA0EB0201904230D006DC254908449C
:1017E00078B32549084468BB1FE02448084498B1F1
:1017F000B0F5C02F2DD112E0B1F5202F18D0B1F5E2
:10180000A81F20D0B1F5F01F03D01D480844C8B967
:1018100011E0FFF7DBFE1DE0FFF71CFF1AE0FEF70B
:101820006AFD17E0FFF7FEFE14E0FFF733FF11E05B
:10183000FEF760FD0EE0FFF7DDFC0BE0FFF76AFF4F
:1018400008E003E005E0FFF75BFF03E0FFF7B4FE0D
:1018500000E000BF00BF00200349486010BD000049
:10186000AC010010C86D0010E86D001056F40818A7
:1018700056F41A10AA0BE0F7000015F8000019F84A
:1018800000001CFB38B50446C1208DF80000A920DB
:101890008DF8010002208DF8020065208DF803000C
:1018A0006A460C21204604F0C7FB01220021204695
:1018B00004F052FB01221146204604F04DFBC820E3
:1018C00001F060FB0321204602F0BAFE19490860CE
:1018D00008460068132806D010220121204604F093
:1018E0003BFB002038BD04220121204604F034FBDC
:1018F00000BFC82001F046FB0221204602F0A0FEF6
:1019000000F0080030B110220121204604F024FB31
:101910000020E7E70621204602F092FEFF2805D0CE
:1019200010220121204604F017FB00E0E1E700BF90
:101930000120D7E73801001010B502F05BFB00F082
:1019400033F810BD2DE9F04105460F46164606F165
:101950000608404605F04CF804465A202070A520A1
:101960006070F01CA0708220E07028122071284660
:10197000E91705EB11610912A5EB012161713246EE
:101980003946A01DFEF7DAFBB11D204603F0A2FB8D
:10199000052300221146104601F02EFB204604F0DC
:1019A000C7FFBDE8F081000010B58AB0A748006805
:1019B00088B1A748018840F2012000F031FAA4481C
:1019C0004088642190FBF1F084B2214640F202206D
:1019D00000F026FA09E0002140F2012000F020FA90
:1019E000002140F2022000F01BFA9848408A00EBE8
:1019F00080004FF6FF7202EA400140F2032000F03F
:101A00000FFA9248808A00EB80004FF6FF7202EADC
:101A100040014FF4017000F003FA8C48C17A4FF492
:101A20004C7000F0FDF98948008A00EB80004FF609
:101A3000FF7202EA40014FF4447000F0F1F983486C
:101A4000418B4FF4507000F0EBF98048817F4FF4E8
:101A5000547000F0E5F97D48808900EB80004FF676
:101A6000FF7202EA40014FF4006000F0D9F97748B4
:101A7000C08900EB80004FF6FF7202EA40014FF48C
:101A8000016000F0CDF97148C18A4FF4046000F0A4
:101A9000C7F96E48018B4FF4056000F0C1F96B483F
:101AA000017F4FF4066000F0BBF96848417F4FF4B6
:101AB000076000F0B5F96548017A4FF4086000F05E
:101AC000AFF96248808800EB80004FF6FF7202EAAF
:101AD00040014FF4026000F0A3F95C48C08800EBBD
:101AE00080004FF6FF7202EA40014FF4036000F0FD
:101AF00097F9062201A9574800F0D8FC0C2201A949
:101B00004FF4096000F0BFF9524801894FF41060AA
:101B100000F086F94F4881894FF4116000F080F998
:101B200011224A491F314FF4126000F0ACF94A48C3
:101B3000406B00F4801030B1042248494FF4A0609B
:101B4000FFF700FF0BE0042200214FF4A060FFF735
:101B5000F9FE022242494FF4A060FFF7F3FE3B4832
:101B6000807A012802D002280ED106E004223D49E5
:101B70004FF4A260FFF7E6FE07E004223A494FF473
:101B8000A260FFF7DFFE00E000BF00BF2F48407AF1
:101B900005282ED008DC01280FD0022814D00328F5
:101BA00019D0042848D11DE0062829D007282ED0B6
:101BB000082833D0FF283FD137E008222B494FF4C3
:101BC000A460FFF7BFFE3EE0082229494FF4A4605D
:101BD000FFF7B8FE37E0082226494FF4A460FFF76C
:101BE000B1FE30E0082224494FF4A460FFF7AAFEBA
:101BF00029E0082221494FF4A460FFF7A3FE22E068
:101C000008221F494FF4A460FFF79CFE1BE0082246
:101C10001C494FF4A460FFF795FE14E008221A490E
:101C20004FF4A460FFF78EFE0DE0082217494FF431
:101C3000A460FFF787FE06E0082214494FF4A46071
:101C4000FFF780FE00BF00BF0AB010BD783C001057
:101C500078000010683C00100080092093000010FC
:101C600090000010980000109D000010A2000010CD
:101C7000AB000010B4000010BD000010C600001042
:101C8000CF000010D8000010E1000010EA000010A2
:101C90002DE9F0470446894617462078AA2802D144
:101CA0006078F52802D00020BDE8F087A178E078C0
:101CB00001EB002085B22079022801D00020F3E753
:101CC00094F80580A179E07901EB0020C6B2672E77
:101CD00054D00EDC072E36D006DC012E18D0032E91
:101CE0001FD0052E77D125E0092E35D0652EF9D1EC
:101CF0003BE0C92E66D006DC692E48D06B2E4FD053
:101D00006D2E7BD155E0CB2E66D0CD2E76D16CE0FA
:101D1000A5F1090081B23A4604F1080004F0DBFCA9
:101D20006DE0A5F1090081B23A4604F1080004F023
:101D3000B1FD64E0A5F1090081B23A4604F1080062
:101D400004F0F3FD5BE0A5F1090081B23A4604F12D
:101D5000080004F0EBFD52E0A5F1090081B23A461B
:101D600004F1080004F0E3FD49E0A5F1090081B2A7
:101D70003A4604F1080004F045FA40E0A5F10900F4
:101D800081B23A4604F1080004F07AFA37E0A5F18E
:101D9000090081B23A4604F1080004F075FB2EE018
:101DA000A5F1090081B23A4604F1080004F088FC6C
:101DB00025E0A5F1090081B23A4604F1080004F0DB
:101DC00083FC1CE0A5F1090081B23A4604F1080049
:101DD00004F082FC13E011E0A5F1090081B23A465B
:101DE00004F1080004F04EFD09E0A5F1090081B2FC
:101DF0003A4604F1080004F049FD00E000BF00BFCE
:101E000056B1064800684FF6FF71884204D2034875
:101E10000068401C01490860304645E74C0100104D
:101E20007CB505460E466C465A2004F8010BA520E9
:101E300004F8010B052004F8010B822004F8010BC3
:101E4000281204F8010B2846E91705EB1161091265
:101E5000A5EB012104F8011B301204F8010B3046F8
:101E6000F11706EB11610912A6EB012104F8011B21
:101E70000821684603F02EF905230022114610467A
:101E800001F0BAF87CBD2DE9F047054689461746B2
:101E900007F10608404604F0ABFD064634465A20DA
:101EA00004F8010BA52004F8010BF81C04F8010B41
:101EB000822004F8010B281204F8010B2846E917C8
:101EC00005EB11610912A5EB012104F8011B204665
:101ED000641C3A464946FEF731F94146304603F064
:101EE000F9F8052300221146104601F085F8304626
:101EF00004F01EFDBDE8F08710B507480078012802
:101F000009D10648007830B902F06AF803F024FFDE
:101F1000002003F0CDFE10BD400100104201001072
:101F200008B50146084800EB81321068009000981F
:101F300020F00100401C0090009810601068009094
:101F4000009800F0010008BD0040044010B502F008
:101F50002DFD0446204610BD10B50446204602F073
:101F60004DFD10BD40F2E271C1800C21417105218F
:101F7000C170042101710C218170417001707047A2
:101F800008B5009002E00099491E009100990029CF
:101F9000F9D108BD2DE9F04104460D461646184812
:101FA000006840F48030164908600846C06940F473
:101FB0008030C8610520FFF7E3FF032002F09AFCA0
:101FC000280A02F097FCE8B202F094FC002705E032
:101FD00002F068FC2070641C781C87B2B742F7DB03
:101FE0000520FFF7CDFF0648006840F48030044923
:101FF00008600846806940F480308861BDE8F0815F
:102000000080092010B51248006840F48030104963
:1020100008600846C06940F48030C8610520FFF7B9
:10202000AFFF052002F066FC02F03CFC04460520F0
:10203000FFF7A6FF0648006840F4803004490860B6
:102040000846806940F480308861204610BD000059
:10205000008009202DE9F04104460D461746FFF7A0
:10206000D1FF804608F07100002857D12C48006845
:1020700040F480302A4908600846C06940F4803046
:10208000C8610520FFF77CFF062002F033FC052025
:10209000FFF776FF2248006840F48030204908604E
:1020A0000846806940F4803088610520FFF768FFAA
:1020B00000BFFFF7A7FF00F080000028F9D1184803
:1020C000006840F48030164908600846C06940F452
:1020D0008030C8610520FFF753FF022002F00AFCA0
:1020E000280A02F007FCE8B202F004FC002605E032
:1020F000207802F0FFFB641C701C86B2BE42F7DB46
:102100000520FFF73DFF0648006840F48030044991
:1021100008600846806940F480308861BDE8F0813D
:10212000008009202DE9F04304460D4616461F465F
:10213000DDF81CC00020E1E014F80080B8F1680F61
:1021400075D100F1070814F80880B8F1680FF7D1CD
:1021500000F1090814F8088008F10A0808F0FF02E5
:1021600000EB020808F1010814F80880B8F1160F16
:1021700000D0BFE0002300210AE000EB010814F8C2
:102180000880984408F0FF0301F101081FFA88F164
:102190009142F2DB00EB020814F80880984500D069
:1021A000A8E004EB0008D8F80190C5F80090B8F852
:1021B0000580A5F8048000F1080814F8088008F0EC
:1021C000800202B996E000F1080814F8088008F0CF
:1021D000400202B18EE000F1080814F8088008F00F
:1021E0000F02012A01D0022A56D100F1090814F881
:1021F0000880B8F1040F00DC7CE000F1090814F855
:102200000820102A00DD75E000210CE000F10A082A
:10221000884414F80880A8F1330806F8018001F119
:1022200001081FFA88F10429F0DB042131E060E0A5
:1022300000F10A08884414F80880B8F1320F0FD072
:1022400000F10A08884414F80880B8F1000F07D09C
:1022500000F10A08884414F80880B8F1FF0F07D18C
:102260004FF0000900F10A08884404F808900CE0D7
:1022700000F10A08884414F80880A8F1330808F02F
:10228000FF09A1F1040807F8089001F101081FFAFD
:1022900088F19142CCDB2BE0042A29D100F1090816
:1022A00014F80880B8F1000F00D023E00A220023C0
:1022B00000210AE000EB010814F80880984408F0B7
:1022C000FF0301F101081FFA88F19142F2DB00EBF4
:1022D000020814F80880984500D00BE000EB0208D3
:1022E00008F1010814F80880B8F1160F00D001E0D9
:1022F00007E000BF00F101081FFA88F06045FFF415
:102300001BAF00BFBDE8F0832DE9F043844688464B
:102310001546DDE907463146FE2001F8010B01F8BC
:10232000010B01F8010B01F8010B682001F8010B0A
:10233000DCF800000860BCF804008880891D682073
:1023400001F8010B01F8018B01F8014B042C1CDB97
:1023500005F1330001F8010B280A333001F8010BB5
:10236000280C333001F8010B332000EB156001F825
:10237000010B002206E013F8010B333001F8010BCA
:10238000501CC2B2201F9042F5DC0027042204E05A
:10239000B05C3844C7B2501CC2B204F10E00824295
:1023A000F6DB01F8017B162001F8010B04F11000A7
:1023B000C0B2BDE8F08300002048006840F48050BF
:1023C0001E4908600846C06940F48050C86108464C
:1023D000006C40F4805008640846C06D40F48050A2
:1023E000C8650846006840F4803008600846806987
:1023F00040F48030886111488030006840F480608B
:10240000C1F880000846D0F89C0040F48060C1F814
:102410009C000846006E20F0007008660846006ABE
:1024200020F4801008620846006A20F40000086268
:102430000846006A20F0807008627047008009201A
:1024400001460A2091FBF0F200FB121291FBF0F022
:1024500002EB0010C0B2704770B504460D46164638
:102460001048007800B970BD0F4800684FF6FF7142
:10247000884204D20C480068401C0B490860012EB9
:102480000BD1022000F07EFD2A462146002003F0F9
:10249000D1FC022000F076FD00E000BF00BF00BFCD
:1024A000E1E70000420100104801001070B5044649
:1024B0000B4600201DE0255C29110A2904DB01F1EF
:1024C000570503F8105003E001F1300503F81050F0
:1024D000255C05F00F010A2905DB01F1570503EB27
:1024E0004006757004E001F1300503EB400675709D
:1024F000401C9042DFD370BD10B509480078012818
:102500000DD141020748FDF732FE0649002001F0D7
:10251000FDFF05490880034904A001F01EFB10BD22
:102520004001001028410010340100102573000004
:102530007CB5002472E00025AA2206213948FDF767
:102540000FFE38480021C160016141613648042115
:10255000CDE90010354850F82420324B0C331121BE
:102560003048FFF7D1FE32490880084601882E48DE
:1025700002F0D0FE2C492FA001F0EFFA4FF4FA73CD
:1025800001220021084600F037FD2B480021C0F849
:102590000610C160016141614FF48060264B0C332D
:1025A0009A1F911F00902548FFF7BCFDC6B2224834
:1025B000407A01062048007A41EA00411E48C0796D
:1025C00041EA00201C49897940EA0105B5F5803FC0
:1025D00016D01B48284418B1B0F5803F18D107E049
:1025E0000C2115480C3000F06FF81649088010E0F7
:1025F0000C2111480C3000F067F81249488008E0BF
:102600000C210D480C3000F05FF80E49486000E0E6
:1026100000BF00BF02F05AFE601CC4B2032C8ADB6C
:102620007CBD0000F8400010F83C0010E46C000095
:10263000F40000102573000010410010A855001090
:1026400000FFFEFD7800001070B5002400251B4837
:102650000088782190FBF1F0012805DB0020174964
:10266000088001F0BDFC70BD15480078012802D03B
:102670001448007800B9F6E711480078012815D011
:10268000002411E001216A2003F01AF9002507E077
:102690004FF4FA6000F076FC02F08EF8681CC5B2C8
:1026A000032DF5DB601CC4B20A2CEBDB0448007878
:1026B00010B900200349087000BFD4E7C40100101E
:1026C0004301001042010010F0B506460C460027F9
:1026D00000250BE0611B491E705CFEF785F807EBD7
:1026E000C70101EB071100EB81076D1CA542F1D377
:1026F0003846F0BD00F01F020121914042099200CE
:1027000002F1E022C2F800117047014600E0491EC4
:102710000029FCDC704700001D481E481E481F4869
:102720001F48204820482148214822482248234861
:102730002348244824482548254826482648274831
:10274000274828482848294829482A482A482B4801
:102750002B482C482C482D482D482E482E482F48D1
:102760002F483048304831483148324832483348A1
:102770003348344834483548354836483648374871
:102780003748384838483948394800BF7047000052
:10279000706C0000746C00007A6C00007C6C0000AF
:1027A000786C00007E6C0000806C0000826C000081
:1027B000846C0000866C0000886C00008A6C00004D
:1027C0008C6C00008E6C0000906C0000926C00001D
:1027D000946C0000966C0000986C00009A6C0000ED
:1027E0009C6C00009E6C0000A06C0000A26C0000BD
:1027F000A46C0000A66C0000A86C0000AA6C00008D
:10280000AC6C0000AE6C0000B06C0000B26C00005C
:10281000B46C0000B66C0000B86C0000BA6C00002C
:10282000BC6C0000BE6C0000C06C0000C26C0000FC
:10283000C66C0000C86C0000CA6C0000CC6C0000C4
:102840009810001018150010D06C0000D26C000019
:10285000D46C0000D66C0000D86C0000DA6C00006C
:10286000DC6C0000DE6C0000E06C0000CE6C000050
:10287000E26C000070B505460E461446104800781C
:1028800010B11220207070BD2878012808D00228CD
:1028900007D0032802D0042804D100E000BF00BF05
:1028A00000BF02E001202070EDE700BFFDF786FECB
:1028B0006E61FDF78CFE0020207000BFE3E7000092
:1028C0003100001010B500F019F800F0ADFE00F076
:1028D000D5FE00F0F5FE00F077FE00F049FE00F0B6
:1028E00089FF00F0B3FF00F02BFF00F051FF00F074
:1028F0003FFCFDF701FDFFF70FFF10BD0020014970
:10290000088070471400001010B51A48007801289C
:102910002ED1FDF753FE1848007820B116480078F4
:10292000401E1549087014480078F8B9134800781B
:10293000E0B900F0EBFF12481249097850F8210085
:10294000114908600F4800781049097888420DD075
:102950000D480068C06B401C0B490968C8630C48EF
:102960000068401C0A490860FDF757FEFDF72FFE7E
:1029700010BD00003E0000103100001032000010B9
:1029800030070010340000104C000010330000101D
:102990001800001010B50A48007801280FD1FDF783
:1029A0000DFE0848007840B907480078FF2804D297
:1029B00005480078401C04490870FDF708FE10BD6A
:1029C0003E000010310000103200001010B5114818
:1029D000007801281CD1FDF7F1FD0F480078A8B15F
:1029E0000D480078401E0C4908700846007850B920
:1029F0000A48007820B9FDF7EAFD00F04FFF07E034
:102A0000FDF7E5FD04E0FDF7E2FD01E0FDF7DFFD88
:102A100010BD00003E000010320000103100001018
:102A200070B505460F48007808B1002070BDFDF76D
:102A3000C5FD0D480468006820B10B480068406877
:102A400009490860FDF7C3FD4CB1032020702581C2
:102A50000020606005A06061204600F07BFD2046FC
:102A6000E4E70000310000101C0000103F000000EF
:102A700070B505460E4614462878032802D001207A
:102A8000207070BD2F48007810B102202070F8E748
:102A90002D48007810B10D202070F2E7FDF78EFD73
:102AA000288938B12889401E2881FDF790FD002033
:102AB0002070E6E72548006890F8340040F00100F7
:102AC0002249096881F8340000202049096881F80A
:102AD00035001E4800680663284600F0FDFCFDF73F
:102AE00076FD00F0DBFEFDF769FD1848006890F800
:102AF000350020B1012809D0022806D102E00020CB
:102B000020700BE00E20207008E000BF29460F481F
:102B1000006800F0AFFC0A20207000BF00BF00205A
:102B20000A49096881F834000849096881F83500C4
:102B300006490968C861054909680862FDF747FD4B
:102B400000BF9EE73100001032000010440000106A
:102B500010B504462078032801D0012010BDFDF7F0
:102B60002DFDA07A58B1002301221946204600F01D
:102B700039FCFDF72CFD00F091FE0020EEE72089E6
:102B80004FF6FF71884206D22089401C2081FDF754
:102B90001EFD0020E2E7FDF71AFD3320DEE700000E
:102BA00010B50B48007890B900F0B0FE09480078E5
:102BB0000949087009480749097850F8210008496F
:102BC00008600846006807490860FDF70EFD10BD63
:102BD0003E000010340000103300001030070010D9
:102BE0004C0000104400001010B5022000F0CAF99B
:102BF000FDF7E4FC002009490860FDF7E8FC6420CB
:102C000000F0C0F9FDF7DAFC0448006804490860E8
:102C1000012004490870FDF7DAFC10BD40000010E7
:102C200028000010300000102DE9FE4306460F4634
:102C300090461C46FDF7C2FC1C48007820B1FDF709
:102C4000C6FC3C20BDE8FE83194850F8240048BB70
:102C50000120174941F82400FDF7B9FC0023424642
:102C60003946304600F0F0F881460020009001908F
:102C70000346024649460290204600F05DFE0546A6
:102C800035B90C48007801280AD100F007FE07E0AA
:102C9000FDF794FC0020064941F82400FDF797FC5D
:102CA0002846CFE7FDF793FC2820CBE73100001042
:102CB000300700103E0000102DE9FF5F81468A4674
:102CC00093461C46DDE90F78129DFDF777FC2048FE
:102CD000007828B1FDF77BFC3C2004B0BDE8F09FF4
:102CE0001C4850F8240070BB01201A4941F8240008
:102CF000FDF76DFC2A464146384600F021FF2B4681
:102D00005A465146484600F09FF803901198CDE985
:102D1000008002953A4620460E9B039900F00CFE77
:102D2000064636B90C48007801280AD100F0B6FDF5
:102D300007E0FDF743FC0020064941F82400FDF7B9
:102D400046FC3046C9E7FFE7FDF741FC2820C4E711
:102D500031000010300700103E000010704770472F
:102D60002DE9F04106460F4614461348007818B185
:102D700012202070BDE8F081FDF720FCFF2E03D16A
:102D80000E48006890F836600D4850F8265025B976
:102D9000FDF71DFC43202070ECE7012D04D1FDF769
:102DA00016FC43202070E5E72F65FDF710FC00209E
:102DB000207000BFDEE7000031000010440000106A
:102DC00030070010704700002DE9F04707460D4618
:102DD000002028606860FDF7F1FBFF2F03D1184841
:102DE000006890F83670174850F8274024B9FDF76E
:102DF000EEFB4320BDE8F087012C03D1FDF7E7FB94
:102E00004320F7E7207C00F0010018B9FDF7DFFB55
:102E10004520EFE70026D4F80C90D4F80880FDF7A1
:102E2000D6FB00E0761C58F8041B0029FAD0B0004D
:102E30002860A9EB0600800068600020DAE7000047
:102E4000440000103007001070B5044610464FF0E3
:102E500080750560051F28462C606FF00106051F70
:102E600028462E604FF01236051F28462E604FF080
:102E70000336051F28462E604FF00236051F2846F0
:102E80002E607610051F28462E60051F28462960F3
:102E90004FF01136051F28462E604FF01036051FE3
:102EA00028462E604FF00936051F28462E604FF049
:102EB0000836051F28462E604FF00736051F2846A6
:102EC0002E604FF00636051F28462E604FF005365F
:102ED000051F28462E604FF00436051F28462E6039
:102EE00070BD00002DE9F0410546FDF767FBFF2DA1
:102EF00005D11F48006890F83650012608E01C48AC
:102F0000006890F83600A84201D1012600E00026B2
:102F1000184850F8254024B9FDF759FB4820BDE872
:102F2000F081012C03D1FDF752FB4320F7E794F821
:102F300038701148C05D94F8391088430E49C8555F
:102F40000846C05D30B994F83A100C4800788843C0
:102F50000A49087094F8340040F0080084F83400FE
:102F6000FDF735FB012E01D100F098FC0020D6E7DB
:102F7000440000103007001036000010350000102B
:102F80007047000070B505461648007800B170BD66
:102F90001548007800B1FAE70DB3FDF70FFB1348B1
:102FA000006890F838401248005D1049096891F8AF
:102FB000391088430E4908550846005D40B90B4852
:102FC000006890F83A100B48007888430949087067
:102FD000064800680563FDF7FAFA00F05FFC00BFE1
:102FE000D5E700003100001032000010440000104E
:102FF00036000010350000102DE9F04105460E4660
:1030000017461C461248007810B15520BDE8F081E3
:103010001048007808B13220F8E74FF47A70604326
:103020004FF47A71B0FBF1F14FF461606843C6EB85
:10303000061200EB8200384400EB4002C2EBC010E5
:1030400001EBC0084046FFF79DFF0020DEE70000CF
:10305000310000103200001070B500F06DF8FDF77F
:10306000ADFA2F480068401C2D490860FDF7AFFA03
:103070002C480078012851D12B48007820B1012834
:1030800004D0022809D103E001250BE0002509E066
:10309000012501202449087004E00125002022496F
:1030A000087000BF00BF05B970BD2048046831E05A
:1030B000FDF784FA206B50B3206B401E2063206B19
:1030C00028BB94F8340000F0370040B114F8340FF6
:1030D00000F0C800207001206070343C02E0002045
:1030E00084F8350094F8340000F0080078B93834DA
:1030F000A0780F49097808430D49087020780D49D8
:10310000085C6178084314F838190A4A5054646915
:10311000FDF75DFA94F836003F28C9D100BFC3E738
:10312000600000103E00001054000010500000101D
:10313000350000103600001010B507480088401C0C
:103140000549088008460088642803D300200880C9
:1031500000F004F810BD00001400001010B5034882
:103160000068FFF7F5FC0446204610BD7000001013
:10317000F8B54FF42071284800F032FB4021274871
:1031800000F02EFB002514E0681C86B205EB8500DC
:10319000214901EBC00406EB860001EBC007642067
:1031A0002070002084F82500E7601DA02062681CC4
:1031B00085B20F2DE8D305EB8500174901EBC0045C
:1031C00064202070002084F82500E06014A02062B4
:1031D0000020144908601449088010201349088011
:1031E0000D48134908600120FFF71AFC11490860D7
:1031F0000020FFF715FC104908606A460FA10D4832
:103200000068FFF737FB6A4611A10B480068FFF71B
:1032100031FB00F027F8F8BD9810001018150010C9
:103220003F000000680000106600001064000010FD
:10323000740000106C0000107000001075432F4FD8
:10324000532D494920546D724C6F636B0000000090
:1032500075432F4F532D494920546D725369676E42
:10326000616C000000B587B00320002180220A4B6A
:10327000CDE90132CDE903104FF6FD703C23074A3A
:1032800000900748FFF718FD06AA06A13C20FFF7AB
:1032900067FD07B000BD00001813001014150010E2
:1032A0002133000075432F4F532D494920546D722F
:1032B0000000000070B50B46032580F82550012B57
:1032C00005D1154EC5693668354445610CE0856900
:1032D0002DB9114EC56936683544456104E00E4E7E
:1032E0008569366835444561057D05F007040B4D59
:1032F00005EBC4010D682DB908600025C5600125E6
:103300008D8006E00A680860C26010618D886D1CBF
:103310008D800025056170BD680000101815001033
:1033200008B500BF00BF6A4600211A480068FFF7D1
:103330009FFBFFF72FFB18480068401C16490860E8
:103340000846007800F00708144800EBC8073C68FE
:103350001AE0E668104960690968884213D120467E
:1033600000F01EF894F82400022804D10121204620
:10337000FFF7A0FF02E0022084F82500656815B180
:103380002046A168A8473446002CE2D1FFF71EFB77
:10339000C9E7000070000010680000101815001048
:1033A00030B5057D05F007040D4D05EBC4031D6820
:1033B000854205D1C168196039B100250D6104E06D
:1033C0000169C268CA6002B11161012580F8255007
:1033D0000025C56005619D886D1E9D8030BD000083
:1033E000181500102DE9F04F05460F4690469946F6
:1033F000A87A1C490E5C05F10B00805D11F800B045
:103400000BEBC60000F0FF0A174850F82A400020D6
:103410002434E0602760207C20EA0800207484F8CF
:103420001190207C243C00F0080068B994F83A0020
:103430000E49097808430D4908700D48805D94F8DD
:10344000391008430A4988552946204600F012F8E9
:10345000206A20B12046216A00F021F8E56150463B
:10346000BDE8F08F706B00003007001035000010D1
:103470003600001010B590F8382001F10B039B5C6A
:1034800090F83940A34301F10B04A35423469B5CFD
:1034900023B98B7A90F83A40A3438B7210BDF0B5F4
:1034A000024612F8384F95785678383A0B46186825
:1034B0000FE000F10B073F5DB74300F10B0C0CF878
:1034C000047067463F5D17B9877AAF4387721B1D4B
:1034D00018680028EDD1F0BD10B51B4A1268D06104
:1034E000194A126892F8383000F10B02D25C164B80
:1034F0001B6893F839301A43134B1B6893F8384014
:1035000000F10B031A55827A0F4B1B6893F83A307F
:103510001A4382720C4A126892F838100B4A525CB5
:10352000094B1B6893F839309A43084B5A541A4692
:10353000525C42B9044A126892F83A30044A12784E
:103540009A43034B1A7010BD44000010360000105F
:1035500035000010014600228A72002005E0002399
:1035600001F10B021354421CD0B20828F7D3704764
:103570002DE9F0415021114800F032F900250DE00D
:10358000681C86B20D4800EB051400EB06170020FE
:10359000207067600AA0E060681C85B2042DEFD33C
:1035A000064800EB051400202070606004A0E06075
:1035B000024804490860BDE8F0810000E002001004
:1035C0003F0000002000001070B5F021134800F00B
:1035D00007F9002411E0601C85B204EB44000F4998
:1035E00001EBC00305EB450001EBC006002018709D
:1035F0005E600BA05861601C84B2092CEBD304EB15
:103600004400064901EBC00300201870586004A074
:10361000586108460349086070BD0000F0010010C1
:103620003F0000001C00001000200A4908600A4901
:1036300008700A4908700A4908700A4908700A495E
:1036400008600A4908600A4908600A4908600A498E
:103650000870704760000010310000103200001048
:103660003F0000103E000010180000104000001045
:103670002C000010280000103000001000210A4A21
:103680001170002004E00021084A1154411CC8B206
:103690000828F8D30021064A1170064A1170064A1C
:1036A0001160064A116070473500001036000010A6
:1036B00033000010340000104C00001044000010D3
:1036C00070B54FF4F261194800F08AF84FF4807138
:1036D000174800F085F8002413E0601CC5B204EB25
:1036E000440000EBC400114901EBC00305EB4500A9
:1036F00000EBC50001EBC0065E610EA01865601C02
:10370000C4B2152CE9D304EB440000EBC400074914
:1037100001EBC0030020586106A01865002006498F
:10372000086002480549086070BD000030080010BC
:10373000300700103F00000050000010480000104B
:1037400000B587B00320002180220A4BCDE9013269
:10375000CDE903104FF6FF703F23074A009007485A
:10376000FFF7AAFA06AA06A13F20FFF7F9FA07B069
:1037700000BD0000300500102C070010613A000069
:1037800075432F4F532D49492049646C6500000053
:1037900000B587B00320002180220A4BCDE9013219
:1037A000CDE903104FF6FE703E23074A009007480C
:1037B000FFF782FA06AA06A13E20FFF7D1FA07B06A
:1037C00000BD0000300300102C050010813A0000FD
:1037D00075432F4F532D49492053746174000000E5
:1037E00004E0002200F8012B4A1E91B20029F8D112
:1037F0007047000070B578211148FFF7F1FF0024F1
:103800000EE004EB44000E4901EBC005601C00EB28
:10381000400001EBC00068600AA06861601C84B2CF
:10382000042CEED304EB4400054901EBC005002055
:10383000686004A0686108460349086070BD000024
:10384000C00F00103F000000580000102DE9F041AB
:1038500060211048FFF7C4FF00240DE0601C86B211
:1038600004EB44000B4901EBC00506EB460001EBFD
:10387000C0072F60601C84B2032CEFD304EB44001C
:10388000044901EBC0050020286008460249086091
:10389000BDE8F081381000105C00001010B5FCF796
:1038A0008DFE13480078F8B912480078E0B900F0AE
:1038B0002DF811481149097850F821001049086085
:1038C0000E4800780F49097888420DD00C480068EE
:1038D000C06B401C0A490968C8630B480068401C5B
:1038E00009490860FCF792FEFCF771FE10BD00006C
:1038F00031000010320000103007001034000010BA
:103900004C00001033000010180000100649074A50
:103910001278885C0649095C034A515C01EBC001DE
:10392000044A117070470000706B000035000010F1
:1039300036000010340000102DE9F05F05460F46F8
:1039400090469946DDE90AABFCF738FE3D4804682D
:10395000002C72D01C3454F8080C3A490860FCF76B
:1039600036FE44F81C7CA5760020207660766061E7
:1039700044F818BC44F810AC44F8148C0C9824F8A3
:103980000C0C24F80A9C0020E077E810207705F062
:103990000700E076217F01208840A077E17E0120AA
:1039A00088406077002020606060E060A060206256
:1039B000A0626062E062206323A060631C3C00267A
:1039C00006E0002104F1540040F82610701CC6B235
:1039D000002EF6D02046FCF790FC2046FFF7BEF9FB
:1039E000FCF7ECFD194840F8254019480068606173
:1039F0000020A0611648006810B115480068846175
:103A0000134804603834A0781249097808431149F2
:103A1000087020781049085C6178084314F8381958
:103A20000D4A50540D480078401C0C490870FCF7B2
:103A3000CEFD0020BDE8F09FFFE7FCF7C8FD422067
:103A4000F8E70000480000103F00000030070010B9
:103A50005000001035000010360000103F0000102C
:103A600000BF00BFFCF7AAFD04480068401C0349E2
:103A70000860FCF7ACFDFFF772F9F3E740000010B7
:103A800000BF02E0C820FFF77DFA1948007800283F
:103A9000F8D0184800686421B0FBF1F015490860BF
:103AA0000846006828B9002013490870FF20FFF776
:103AB00019FA00BFFCF782FD104800681049086041
:103AC00000200E490860FCF782FD0D480068094996
:103AD0000968B0FBF1F0C0F1640007490870FFF716
:103AE00071F900F00FF86420FFF74CFAE2E70000EC
:103AF00030000010280000102400001040000010CA
:103B00002C0000107CB5002514E069462846FFF71C
:103B10005BF9064666B9094850F8254044B1012CC6
:103B200006D0D4E9020100EB8100A0640198E064B2
:103B3000681CC5B23F2DE8D97CBD000030070010DD
:103B400002F0010343B102F002032BB102E0491E6F
:103B5000002308C00029FAD170470FB42DE9F843BB
:103B600000BF0027B846B946002409A80090089C69
:103B700062E0207825285BD1601C04460078642828
:103B800020D00CDC582844D004DC252848D042281A
:103B90004AD136E0622833D0632845D108E0662850
:103BA00018D069280FD0732822D078283CD12FE074
:103BB000009810F8041B01F0FF090090484600F03F
:103BC0005DF832E000BF009880C80090384600F0F1
:103BD0005BF82AE00098C01D20F007000090D0E9B3
:103BE0000056083000902846314600F063F81CE08B
:103BF000009850F8048B0090404600F0B3F814E0B1
:103C000000BF009880C80090384600F01DF80CE016
:103C100000BF009880C80090384600F079F804E0B2
:103C2000252000F02BF800E000BF00BF641C03E07B
:103C300014F8010B00F022F82078002899D10090A8
:103C4000BDE8F8035DF814FB70B504461CB90AA082
:103C500000F088F870BD254604EBD5714810FFF7D9
:103C6000F3FF04EBD5714910A4EB41013031C8B228
:103C700000F004F800BFEDE73062000010B5044624
:103C8000204601F00FF910BD70B5044604B970BDAF
:103C90000A2094FBF0F52846FFF7F6FF0A2094FB74
:103CA000F0F100FB11403030C5B22846FFF7E6FFC7
:103CB00000BFECE72DE9F04704460D464FF0000940
:103CC000002620462946FCF78DFB06463046FFF7C6
:103CD000DBFF2E20FFF7D2FF3046FCF7FAFA07464B
:103CE00022462B46FCF7F2FA04460D460022074B0B
:103CF00020462946FCF704FB0746FCF773FB064603
:103D00003046FFF7C1FFBDE8F087000080842E41F8
:103D100070B504461CB912A000F024F870BD254609
:103D2000E11704EB11710811FFF7F2FF0A2C0ADA10
:103D3000E11704EB11710911A4EB01113031C8B284
:103D4000FFF79CFF0AE02546E11704EB117109110A
:103D5000A4EB01115731C8B2FFF790FF00BFDDE7B8
:103D60003078000010B5044603E014F8010BFFF7AB
:103D700085FF20780028F8D110BD000008B5024664
:103D8000094800EB823108680090009820F001009B
:103D900000900098086008680090009800F001000A
:103DA00080F0010008BD00000040044030B501462D
:103DB0002E48006840F400702C4AC43AC2F8C4008F
:103DC0002B48007800F0100038B12948007840F006
:103DD0001000274A5C3A82F85C000020244A5C3AD2
:103DE00010720320107001201073FF201074C88817
:103DF000908748791E4A243A1070C8781C4A303A95
:103E000010700879121D10708878194A343A1070B1
:103E10004878121F10700878121F10700120144A81
:103E20005C3A107311200122824043099B0003F188
:103E3000E023C3F8002100BF1222002807DAD306CE
:103E40001D0E0C4B00F00F04241F1D5503E0D3067C
:103E50001C0E094B1C5400BF0120054A5C3A10732C
:103E6000032010700120107230BD0000C4C00F404C
:103E70005C40024018ED00E000E400E04948406981
:103E80004949086047488069484908600846006811
:103E9000C0F30B404649C88044480088C0F3032063
:103EA00048714248007800F01F00C8703E48006822
:103EB000C0F3026008713C480068C0F30440887099
:103EC00039480088C0F3052048703748007800F072
:103ED0003F000870012033490870364908703648A1
:103EE0000088401C3449088034480088401C33490D
:103EF000088033480088401C3149088031480088D8
:103F0000401C30490880304908780978491C2E4AFD
:103F1000117000EBD0714910A0EB410159B12B4851
:103F2000006840F48050294908600846806940F4E0
:103F3000805088610AE02548006840F48050234999
:103F400008600846C06940F48050C8612048807904
:103F5000012805D11F480068401C1E49086002E086
:103F600000201C4908601A48807A012804D11A48A8
:103F70000068401C18490860174800683C21B0FBE5
:103F8000F1F01349898988420BD31148807A0128BE
:103F900007D10020104908601048C07A401C0F4922
:103FA000C872704700400240D0010010D4010010D8
:103FB000D8010010BC010010BE010010C0010010AB
:103FC000C2010010C4010010E001001000800920AF
:103FD000683C0010C8010010CC010010783C0010B3
:103FE0000020024908700249087070474201001021
:103FF0004301001010B50A20FEF7C4FF1E21F84847
:10400000FCF7B5F8002471E2F648005D5A287CD12F
:10401000F449601C085CA528F9D1E01C085C8328E1
:10402000F5D10846005DEE49C91F0870ED49601CD6
:10403000085CEB49C91F4870EA49A01C085CE849C4
:10404000C91F8870E749E01C085CE549C91FC870B2
:10405000E449201D085CE249C91F88800846808821
:104060004FF6FF7101EA0020DD49C91F888008462C
:104070008188DC4A601D105C0844D949C91F8880CA
:104080001146A01D085CD649C91F88710846807971
:104090004200D44BE01D1918D148FCF74FF8D04826
:1040A000C01F808800F00F01002975D10011403831
:1040B000312871D2DFE800F01932424A686071AFEE
:1040C000F6F5707070707070707070F4F3F2F1F05B
:1040D000EF70707070707070EEED869BC2D5F7EB6C
:1040E000EAE9707070707070E80000220321BC482B
:1040F000FCF7D8FABC4948820846408A40F2EE21D3
:10410000884206DCB848408A00E0EDE1B0F5AF7FB8
:1041100003DA4FF4E170B4494882D7E10022032169
:10412000AF48FCF7BFFAB04988820846808AB0F5EC
:10413000C87F02DB4FF4C8708882C7E100220221E9
:10414000A748FCF7AFFAA849C872BFE100220321D3
:10415000A348FCF7A7FAA44908820846008A40F25F
:10416000EE21884203DCA048008AC82803DA40F226
:1041700045109D490882A9E1002201219848FCF7D9
:1041800091FA99494872A1E1002201219448FCF773
:1041900089FA9549887299E197E1002203219048B4
:1041A000FCF780FA904948830846408BB0F5FA7FC7
:1041B00003DC0846408B642803DA4FF4D2708A4946
:1041C000488383E1002203218548FCF76BFA864986
:1041D000C8820846C08AB0F5FA7F03DC0846C08A68
:1041E000642803DA4FF4B4707F49C8826EE100227C
:1041F00003217B48FCF756FA7B4908830846008B6D
:10420000B0F5FA7F03DC0846008B642802DAF02060
:10421000754908835AE1002202217148FCF742FAED
:10422000714988770846807F632803DC0846807FD1
:10423000012802DA32206C49887747E10022022106
:104240006748FCF72FFA684908770846007F63281B
:1042500003DC0846007F012802DA1E206249087745
:1042600034E1002202215E48FCF71CFA5E494877DF
:104270000846407F632803DC0846407F012802DAB5
:1042800001205949487721E105E1E3E0C6E0FCE07F
:1042900009E0ADE09BE0F4E0EFE0D7E0D2E083E0BE
:1042A0006CE03FE012E0002202214D48FCF7FAF9F1
:1042B0004D4908720846007A1E2803DC0846007A39
:1042C0000A2802DA0B2048490872FFE00420464918
:1042D00008600023022219461846FEF78DFE0020D2
:1042E000414908604148006A40F080503F490862F7
:1042F0000846C06B40F08050C8630846006A40F032
:10430000005008620846C06B40F00050C863084681
:10431000006840F0020008600846C06940F00200F2
:10432000C861D3E004203049086000230222194606
:104330001846FEF761FE00202B4908602B48006AF2
:1043400040F08050294908620846C06B40F0805018
:10435000C8630846006A40F0005008620846C06B17
:1043600040F00050C8630846006840F00200086052
:104370000846C06940F00200C861A7E0002203219E
:104380001748FCF78FF9184988810846808940F260
:10439000EE21884203DC14488089C82803DA4FF4F0
:1043A000FA701149888191E0002203210C48FCF742
:1043B00079F90D49C8810846C089FA2803DC084606
:1043C000C0890A2802DAFA200749C8817EE0002263
:1043D00003210348FCF766F90349888076E0000072
:1043E000B33C0010A84D0010783C0010008009205C
:1043F000002203214148FCF755F94149C88008468D
:10440000C08840F2EE21884203DC3D48C088C828BD
:1044100003DA4FF4FA703A49C88057E000220321CA
:104420003648FCF73FF93749088108460089B0F55E
:10443000167F03DC08460089012802DA0120314991
:10444000088143E001202F4988713FE000202D4979
:1044500088713BE0002202212848FCF723F9294912
:10446000888108468089632803DC08468089012802
:1044700002DA01202349888128E00120214988723D
:1044800024E000201F49887220E00C221D491B48AF
:10449000FCF784F91AE01122184919481F30FBF77C
:1044A0004DFE00240EE016481F30005D3D2807DB5E
:1044B00013481F30005D2038C1B211481F3001552C
:1044C000601CC4B2112CEEDB00E000BF00BF00F0A6
:1044D000DDFD342200210A48FDF7BCFD102242F226
:1044E00048010848FDF7B6FD601CC4B206480068E4
:1044F000401C8442FFF488AD10BD0000B33C0010A6
:10450000783C0010683C00106C0100102DE9F04769
:1045100080460D462621404600F0C8F8064616B9EA
:104520000020BDE8F087B6F5806F01D94FF48066B2
:104530002821404600F0BAF80746B946C7F30A07F3
:104540003E48006A40F480703C4908620846C06BEF
:1045500040F48070C8630520FEF7D7F8380AFDF7ED
:10456000FBFCF8B2FDF7F8FC182101EB4811C8B2CA
:10457000FDF7F2FCB819B0F5006F09D2002404E091
:10458000FDF7E4FC05F8010B641CB442F8D33AE0F3
:10459000C7F50067002404E0FDF7D8FC05F8010B1F
:1045A000641CBC42F8D32548006A40F4807023495B
:1045B00008620846806B40F4807088630520FEF72F
:1045C000A4F81E48006A40F480701C49086208463E
:1045D000C06B40F48070C8630520FEF796F8002099
:1045E000FDF7BAFC0020FDF7B7FC182101EB4811DC
:1045F000C8B2FDF7B1FC04E0FDF7A8FC05F8010B1B
:10460000641CB442F8D30D48006A40F480700B4932
:1046100008620846806B40F4807088630520FEF7CE
:1046200074F8B1444A462821404601F0CBFC4022B0
:104630000121404601F090FC304672E700800920DD
:1046400070B504460D4600261748006A40F4807095
:10465000154908620846C06B40F48070C8630520A5
:10466000FEF753F8C5F30720FDF776FCE8B2FDF737
:1046700073FC082101EB4411C9B241F00100FDF7C0
:104680006BFCFDF763FC06460748006A40F4807047
:10469000054908620846806B40F4807088630520F5
:1046A000FEF733F8304670BD008009202DE9F04157
:1046B00004460D461A48006A40F4807018490862A2
:1046C0000846C06B40F48070C8630520FEF71DF8F3
:1046D000C5F30720FDF740FCE8B2FDF73DFC0821DB
:1046E00001EB4411C9B241F00200FDF735FCFDF7C2
:1046F0002DFC07463E02FDF729FC07463E440848CC
:10470000006A40F48070064908620846806B40F4F5
:10471000807088630520FDF7F8FF3046BDE8F08122
:104720000080092070B5054602212846FFF788FF62
:10473000044624B122460221284601F00DFC204601
:1047400070BD000070B504461A48006A40F48070DD
:10475000184908620846C06B40F48070C8630520A1
:10476000FDF7D3FF2546E11704EB1161C1F30720E4
:10477000FDF7F2FBE11704EB11610912A4EB012133
:10478000C8B2FDF7E9FB0120FDF7E6FBFDF7DEFB14
:1047900006460848006A40F48070064908620846E8
:1047A000806B40F4807088630520FDF7AEFF3046D3
:1047B00070BD00000080092010B51648007800B9CF
:1047C00010BD1548007801281DD1002001F070FAB5
:1047D0000020124908800FE0114B93F84020114B44
:1047E0001B880E4C24881B1B99B20F4B0B4C248842
:1047F0001819FDF74DFA05E00848008809490988AD
:104800008842E9DB00BF04480078022800D1D7E7DE
:1048100000BFD5E742010010400100105401001014
:104820003C450010340100102841001000201A49B6
:10483000096841F40011184AC43AC2F8C410164974
:10484000E4310968C8B21549C96B21F00701134A60
:10485000D1631146C96B41F00201D1631146496C25
:1048600021F0070151641146496C41F00201516485
:104870001146896C21F0070191641146896C41F061
:104880000201916440F60701054A11600821116197
:104890000221516070470000C4C00F4000C00240B8
:1048A0000080084002E012498968C8B21049C9680E
:1048B00001F004010429F6D000BF0D49C96801F0D8
:1048C00001010029F9D0FF21094A916000BF084980
:1048D000C96801F010011029F9D000BF0449C96866
:1048E00001F004010029F9D001498968C8B2704774
:1048F0000080084000BF0849C96801F00101002993
:10490000F9D00549886000BF0349C96801F010016A
:104910001029F9D07047000000800840002020498D
:10492000096841F480111E4AC43AC2F8C4101C49F7
:10493000E4310968C8B21B49D1F8801021F00701A1
:10494000184AC2F880101146D1F8801041F00401D5
:10495000C2F880101146D1F8841021F00701C2F886
:1049600084101146D1F8841041F00401C2F884107B
:104970001146D1F8901021F00701C2F890101146AD
:10498000D1F8901041F00401064A9032116040F6CF
:104990000701054A11600821116102215160704729
:1049A000C4C00F4000C0024000C00A4002E01249EB
:1049B0008968C8B21049C96801F004010429F6D019
:1049C00000BF0D49C96801F001010029F9D0FF219C
:1049D000094A916000BF0849C96801F01001102917
:1049E000F9D000BF0449C96801F004010029F9D0D9
:1049F00001498968C8B2704700C00A4000BF084931
:104A0000C96801F001010029F9D00549886000BF9B
:104A10000349C96801F010011029F9D0704700005E
:104A200000C00A4010B51548007810B1144800784D
:104A300000B910BD1348007801281CD11248008825
:104A40000F2190FBF1F201FB1200A0B901216820B7
:104A500000F036FFC823002211461046FEF7CCFABC
:104A60000121662000F02CFF4FF44873002211460C
:104A70001046FEF7C1FA00BFDBE70000430100105B
:104A80004201001040010010BE01001010B50446A4
:104A900001220021204601F05FFA01221146204642
:104AA00001F05AFA0A20FEF76DFA03212046FFF7BB
:104AB000C7FD132806D010220121204601F04CFA30
:104AC000002010BD04220121204601F045FA0120FA
:104AD000F7E7000010B504461148006802190421E8
:104AE000204601F06FFA0F4A0C21204601F0A4FA8B
:104AF0000D4810210268204601F064FA40F2B452D9
:104B00001221204601F05EFA02221E21204601F009
:104B100023FA02221F21204601F01EFA10BD0000D8
:104B20000C010010100100101401001010B531200C
:104B30003A49887131213948C171382101723021D7
:104B40004172352181723121C1723F2101733021BF
:104B5000417381733521C1730A2404E000212F4879
:104B6000801D0155641C202CF8DB42F210702B498B
:104B70004880012081F848001421284880F8491015
:104B8000A82180F84A10C02180F84B1058202349F2
:104B900081F84C001421214880F84D10A82180F89C
:104BA0004E10C02180F84F1042F228301B49A1F866
:104BB0005000002081F85200FF21184880F853105F
:104BC00080F8541080F855100020144981F85600E0
:104BD0001021124880F8571080F8581080F85910AA
:104BE00080F85A1080F85B10FE200C4981F84100D3
:104BF00014210A4880F84210A82180F84310C021EF
:104C000080F844104FF4E1600449A1F846006C229A
:104C100041F224010148FDF71DFA10BD3C4500108A
:104C200021202E49086000BF2C48006800F0400099
:104C30000028F9D001202949943908600920284921
:104C4000C1F884000120264980310860AA20244947
:104C50008C3108605520086000BF2148883000680A
:104C600000F480600028F8D023201D49A43108609A
:104C700001201B49C1F8A000AA201949AC310860E5
:104C800055201749C1F8AC0000BF1548A83000688E
:104C900000F480600028F8D040F201100F499C39E0
:104CA000086040F201200E49C1F8080101200B49BB
:104CB000A0390860022009490831086009480849FC
:104CC000C4310860881505492831086045F23A006A
:104CD000034908600020044908607047A0C10F40E4
:104CE00000C00F40DE87280408ED00E010B5342234
:104CF00000210848FDF74EF96C2241F224010648D4
:104D0000FDF748F9102242F248010448FDF742F944
:104D100010BD0000783C00103C450010683C0010BD
:104D200001204FF04021086011480078401C1049D4
:104D30000870087800EBD0714910A0EB410159B917
:104D40000C48006840F000600A4908600846806925
:104D500040F0006088610AE00648006840F00060AA
:104D6000044908600846C06940F00060C8617047A7
:104D7000E10100100080092010B51A48006840F0D9
:104D800002001849C439C1F8C40002204FF0402184
:104D9000486001200860002008678860C8601248E9
:104DA000886103204861012001218140420992006D
:104DB00002F1E022C2F8001100BF0321002807DA47
:104DC000CA06140E094A00F00F031B1FD45403E057
:104DD000CA06130E064A135400BF01204FF04021AB
:104DE000486010BDC4C00F40009F240018ED00E0D3
:104DF00000E400E010B51B48006840F008001949C5
:104E0000C439C1F8C4001848806820F0070016496A
:104E100088600846806840F0010088600846C068E5
:104E200020F00700C8600846C06840F00100C86074
:104E300083200E4908730E48006800094FF4E131E1
:104E4000B0FBF1F4200A094908710C7003200873C3
:104E5000872008720520FDF74DFC072003494860B4
:104E600010BD0000C4C00F4000C0024000C00040A0
:104E70000400001010B50848007810B90748006811
:104E800048B1002004490870044908604FF480616B
:104E90000348FBF76CF910BD640100105C010010C1
:104EA000A84500100449087000BF0349097D01F0BE
:104EB00020010029F9D0704700C0004070B500BF44
:104EC00048488068C4B2641004F00704032C36D14B
:104ED0004448057D05F09E0010B14248067870BD3B
:104EE00005F0010000287BD000203F49086017E052
:104EF0003D4800683D4909680844B0F5806F01D31A
:104F0000FFF7B8FF3748007837490968374A126811
:104F10001144374A505434480068401C32490860F4
:104F2000314800680828E3D3304800682E490968F2
:104F300008442E49086001202E49087050E0022CD8
:104F40002AD100202849086017E02748006827492F
:104F500009680844B0F5806F01D3FFF78BFF214843
:104F6000017821480068214A12681044204A1154EF
:104F70001D480068401C1C4908601B480068082840
:104F8000E3D31A48006818490968084417490860BB
:104F900001201849087023E0062C1CD111E01348A9
:104FA0000068B0F5806F01D3FFF764FF0D4800780B
:104FB0000F490E4A126888540C480068401C0B497F
:104FC00008600848007D00F001000028E7D10120BA
:104FD0000849087004E0012C02D10248057D00BF99
:104FE00000BF7CE700C00040580100105C010010C9
:104FF000A84500106401001010B51F48006840F07B
:1050000010001D49C439C1F8C4001C48D0F8000183
:1050100020F007001949C1F800010846D0F8000146
:1050200040F00200C1F800010846D0F8040120F069
:105030000700C1F804010846D0F8040140F002005E
:105040000F49086083200F4908730F480068000962
:105050004FF4E131B0FBF1F4200A0A4908710C70F9
:1050600003200873872008720620FDF743FB072002
:105070000449486010BD0000C4C00F4000C0024099
:1050800004C10240000001400400001010B50848AF
:10509000007810B90748006848B10020044908703A
:1050A000044908604FF480610348FBF760F810BDC5
:1050B000740100106C010010A84D00100449087024
:1050C00000BF0349097D01F020010029F9D0704794
:1050D0000000014030B502460B46002404E012F8FF
:1050E000010BFFF7EBFF641C9C42F8D330BD0000BE
:1050F00070B500BF48488068C4B2641004F007046B
:10510000032C36D14448057D05F09E0010B142487D
:10511000067870BD05F0010000287BD000203F49D3
:10512000086017E03D4800683D4909680844B0F54B
:10513000806F01D3FFF7AAFF374800783749096825
:10514000374A12681144374A505434480068401CAA
:1051500032490860314800680828E3D330480068C5
:105160002E49096808442E49086001202E4908701C
:1051700050E0022C2AD100202849086017E0274877
:105180000068274909680844B0F5806F01D3FFF72C
:105190007DFF2148017821480068214A12681044A7
:1051A000204A11541D480068401C1C4908601B48D7
:1051B00000680828E3D31A480068184909680844B9
:1051C0001749086001201849087023E0062C1CD1FB
:1051D00011E013480068B0F5806F01D3FFF756FF68
:1051E0000D4800780F490E4A126888540C48006830
:1051F000401C0B4908600848007D00F001000028B1
:10520000E7D101200849087004E0012C02D10248CE
:10521000057D00BF00BF7CE7000001406801001071
:105220006C010010A84D00107401001010B5224848
:10523000006840F080702049C439C1F8C4001F489C
:10524000806A20F007001D4988620846806A40F0A5
:10525000010088620846C06A20F00700C86208465C
:10526000C06A40F00100C8629B20154908731548C8
:10527000006800094FF41661B0FBF1F4200A1049F0
:1052800008710C701B200873872008720720FDF737
:1052900031FA07200A4948600B48D0F8800040F0F6
:1052A00008000949C1F880000846D0F8980040F08D
:1052B0000800C1F8980010BDC4C00F4000C00240F3
:1052C00000800940040000100080092010B5084843
:1052D000007810B90748006848B1002004490870F8
:1052E000044908604FF480610348FAF740FF10BD9D
:1052F000840100107C010010A855001004490870BA
:1053000000BF0349097D01F020010029F9D0704751
:105310000080094070B504460D461748006840F00B
:10532000080015498039C1F880000846D0F89C0073
:1053300040F00800C1F89C00002604E014F8010BBE
:10534000FFF7DCFF761CAE42F8D30A230022114699
:105350001046FDF751FE0848006840F00800064975
:105360008039C1F880000846D0F8980040F0080065
:10537000C1F8980070BD00008080092070B500BFA2
:1053800048488068C4B2641004F00704032C36D186
:105390004448057D05F09E0010B14248067870BD76
:1053A00005F0010000287BD000203F49086017E08D
:1053B0003D4800683D4909680844B0F5806F01D355
:1053C000FFF784FF3748007837490968374A126881
:1053D0001144374A505434480068401C3249086030
:1053E000314800680828E3D3304800682E4909682E
:1053F00008442E49086001202E49087050E0022C14
:105400002AD100202849086017E02748006827496A
:1054100009680844B0F5806F01D3FFF757FF2148B2
:10542000017821480068214A12681044204A11542A
:105430001D480068401C1C4908601B48006808287B
:10544000E3D31A48006818490968084417490860F6
:1054500001201849087023E0062C1CD111E01348E4
:105460000068B0F5806F01D3FFF730FF0D4800787A
:105470000F490E4A126888540C480068401C0B49BA
:1054800008600848007D00F001000028E7D10120F5
:105490000849087004E0012C02D10248057D00BFD4
:1054A00000BF7CE700800940780100107C010010FB
:1054B000A85500108401001010B51F48006840F086
:1054C00000701D49C439C1F8C4001C48D0F87002EE
:1054D00020F007001949C1F870020846D0F87002A0
:1054E00040F00200C1F870020846D0F8740220F0C3
:1054F0000700C1F874020846D0F8740240F00200B8
:105500000F49086083200F4908730F48006800099D
:105510004FF4E131B0FBF1F4200A0A4908710C7034
:1055200003200873872008720820FDF7E3F807209E
:105530000449486010BD0000C4C00F4000C00240D4
:1055400074C2024000C009400400001010B50848B1
:10555000007810B90748006848B100200449087075
:10556000044908604FF480610348FAF700FE10BD5B
:10557000940100108C010010A85D001070B500BFF0
:1055800048488068C4B2641004F00704032C36D184
:105590004448057D05F09E0010B14248067870BD74
:1055A00005F0010000287BD000203F49086017E08B
:1055B0003D4800683D4909680844B0F5806F01D353
:1055C000FFF7C4FF3748007837490968374A12683F
:1055D0001144374A505434480068401C324908602E
:1055E000314800680828E3D3304800682E4909682C
:1055F00008442E49086001202E49087050E0022C12
:105600002AD100202849086017E027480068274968
:1056100009680844B0F5806F01D3FFF797FF214870
:10562000017821480068214A12681044204A115428
:105630001D480068401C1C4908601B480068082879
:10564000E3D31A48006818490968084417490860F4
:1056500001201849087023E0062C1CD111E01348E2
:105660000068B0F5806F01D3FFF770FF0D48007838
:105670000F490E4A126888540C480068401C0B49B8
:1056800008600848007D00F001000028E7D10120F3
:105690000849087004E0012C02D10248057D00BFD2
:1056A00000BF7CE700C00940880100108C01001099
:1056B000A85D00109401001010B51F48006840F468
:1056C00080701D49C439C1F8C4001C48D0F88C0250
:1056D00020F007001949C1F88C020846D0F88C0266
:1056E00040F00400C1F88C020846D0F8900220F087
:1056F0000700C1F890020846D0F8900240F004007C
:105700000F49086083200F49C8600F4800680009EE
:105710004FF41651B0FBF1F4200A0A494860E0B298
:1057200008600320C860872088602320FCF7E2FF20
:1057300007200449486010BDC4C00F4000C00240AB
:1057400090C2024000400A400400001010B5084812
:10575000007810B90748006848B100200449087073
:10576000044908604FF480610348FAF700FD10BD5A
:10577000A40100109C010010A865001070B500BFC6
:105780004A488068C4B2641004F00704032C38D17E
:1057900046484069C5B205F09E0018B1434800680C
:1057A000C6B270BD05F0010000287DD00020404940
:1057B000086017E03E4800683E4909680844B0F5B3
:1057C000806F01D3FFF7C2FF384800683849096885
:1057D000384A12681144384A505435480068401C11
:1057E00033490860324800680828E3D3314800682C
:1057F0002F49096808442F49086001202F49087083
:1058000052E0022C2BD100202949086018E02848DA
:105810000068284909680844B0F5806F01D3FFF794
:1058200095FF22480068C1B221480068214A1268E9
:105830001044214A11541E480068401C1C4908604D
:105840001B4800680828E2D31A480068184909680C
:1058500008441849086001201849087024E0062C03
:105860001CD111E013480068B0F5806F01D3FFF739
:105870006DFF0E48006810490E4A126888540D48A2
:105880000068401C0B4908600848406900F00100AE
:105890000028E7D101200949087005E0012C03D157
:1058A00002484069C5B200BF00BF7AE700400A4025
:1058B000980100109C010010A8650010A4010010C0
:1058C000F0B5CBB006460F46AA206B490870F5200C
:1058D000487000204880102008716848007848719E
:1058E00066480078401C654908706348C680682E89
:1058F00048D00EDC082E30D006DC022E18D0042E44
:105900001DD0062E6FD121E00A2E2DD0662E6AD131
:1059100031E0CA2E52D006DC6A2E3AD06C2E3FD02F
:105920006E2E60D143E0CC2E4FD0CE2E5BD153E013
:1059300039465148083000F00AFC044655E0394623
:105940004D48083000F006FC04464EE039464A480F
:10595000083000F003FC044647E03946464808306A
:1059600000F028FC044640E039464348083000F087
:10597000ACFE044639E039463F48083000F04AFCA6
:10598000044632E039463C48083000F083FC0446C7
:105990002BE039463848083000F088FD044624E002
:1059A00039463548083000F08CFE04461DE0394683
:1059B0003148083000F08CFE044600BF39462E48BE
:1059C000083000F08BFE04460FE039462A480830C4
:1059D00000F059FF044600BF39462748083000F060
:1059E00056FF044600BF002400BF00BF0CB94BB0F7
:1059F000F0BD04F10900204948800A46D088C2174A
:105A000000EB12621212A0EB02220B465B791A44E1
:105A10000B46D988CB1701EB136302EB2322164BFD
:105A200083F8082100250AE0134890F8081108308F
:105A3000405D0844104981F80801681C85B2A54200
:105A4000F2DB0D4890F808010B4981F8080108467F
:105A50004088421E6846FAF771FB074890F8081123
:105A60004088401E0DF80010034881783A46684689
:105A7000FCF7F2FC00BFBAE7284300104101001018
:105A80003EB500200090019002904F48006A40F41B
:105A900080704D4908620846C06B40F48070C8634E
:105AA00049488030006840F48060C1F880000846B2
:105AB000D0F89C0040F48060C1F89C00C820FDF73D
:105AC00061FA4148D0F8800040F480603E49C1F856
:105AD00080000846D0F8980040F48060C1F8980033
